{
  "_format": "hh-sol-artifact-1",
  "contractName": "ReviewHost",
  "sourceName": "contracts/ReviewHost.sol",
  "abi": [
    {
      "inputs": [],
      "stateMutability": "nonpayable",
      "type": "constructor"
    },
    {
      "inputs": [
        {
          "internalType": "bytes32",
          "name": "project_name",
          "type": "bytes32"
        }
      ],
      "name": "addProject",
      "outputs": [
        {
          "internalType": "bool",
          "name": "",
          "type": "bool"
        }
      ],
      "stateMutability": "nonpayable",
      "type": "function"
    },
    {
      "inputs": [
        {
          "internalType": "bytes32",
          "name": "project_name",
          "type": "bytes32"
        },
        {
          "internalType": "uint256",
          "name": "score",
          "type": "uint256"
        },
        {
          "internalType": "uint256",
          "name": "amount",
          "type": "uint256"
        }
      ],
      "name": "addScore",
      "outputs": [
        {
          "internalType": "uint256",
          "name": "newScore",
          "type": "uint256"
        }
      ],
      "stateMutability": "payable",
      "type": "function"
    },
    {
      "inputs": [
        {
          "internalType": "bytes32",
          "name": "name",
          "type": "bytes32"
        }
      ],
      "name": "extractEth",
      "outputs": [
        {
          "internalType": "uint256",
          "name": "etherReturned",
          "type": "uint256"
        }
      ],
      "stateMutability": "nonpayable",
      "type": "function"
    },
    {
      "inputs": [
        {
          "internalType": "bytes32",
          "name": "name",
          "type": "bytes32"
        }
      ],
      "name": "getCreator",
      "outputs": [
        {
          "internalType": "address",
          "name": "creator",
          "type": "address"
        }
      ],
      "stateMutability": "view",
      "type": "function"
    },
    {
      "inputs": [
        {
          "internalType": "bytes32",
          "name": "name",
          "type": "bytes32"
        }
      ],
      "name": "getFundingRaised",
      "outputs": [
        {
          "internalType": "uint256",
          "name": "amount",
          "type": "uint256"
        }
      ],
      "stateMutability": "view",
      "type": "function"
    },
    {
      "inputs": [],
      "name": "getProjects",
      "outputs": [
        {
          "internalType": "bytes32[]",
          "name": "visibles",
          "type": "bytes32[]"
        }
      ],
      "stateMutability": "view",
      "type": "function"
    },
    {
      "inputs": [
        {
          "internalType": "bytes32",
          "name": "name",
          "type": "bytes32"
        }
      ],
      "name": "getScore",
      "outputs": [
        {
          "internalType": "uint256",
          "name": "score",
          "type": "uint256"
        }
      ],
      "stateMutability": "view",
      "type": "function"
    }
  ],
  "bytecode": "0x6080604052670de0b6b3a764000060005566038d7ea4c68000600155600160045560006005553480156200003257600080fd5b506200007e6040518060400160405280601781526020017f5374617274696e672052657669657720486f73742e2e2e0000000000000000008152506200008460201b620008a21760201c565b6200020e565b62000124816040516024016200009b9190620001ea565b6040516020818303038152906040527f41304fac000000000000000000000000000000000000000000000000000000007bffffffffffffffffffffffffffffffffffffffffffffffffffffffff19166020820180517bffffffffffffffffffffffffffffffffffffffffffffffffffffffff83818316178352505050506200012760201b60201c565b50565b60008151905060006a636f6e736f6c652e6c6f679050602083016000808483855afa5050505050565b600081519050919050565b600082825260208201905092915050565b60005b838110156200018c5780820151818401526020810190506200016f565b60008484015250505050565b6000601f19601f8301169050919050565b6000620001b68262000150565b620001c281856200015b565b9350620001d48185602086016200016c565b620001df8162000198565b840191505092915050565b60006020820190508181036000830152620002068184620001a9565b905092915050565b61109f806200021e6000396000f3fe6080604052600436106100705760003560e01c80637ba532851161004e5780637ba532851461012c5780638a98b5c6146101695780639071e55614610199578063dcc60128146101d657610070565b806303f47d0e14610075578063060a7ef1146100b25780632104da80146100ef575b600080fd5b34801561008157600080fd5b5061009c60048036038101906100979190610aec565b610201565b6040516100a99190610b34565b60405180910390f35b3480156100be57600080fd5b506100d960048036038101906100d49190610aec565b61037f565b6040516100e69190610b90565b60405180910390f35b3480156100fb57600080fd5b5061011660048036038101906101119190610aec565b6103f3565b6040516101239190610bc4565b60405180910390f35b34801561013857600080fd5b50610153600480360381019061014e9190610aec565b610447565b6040516101609190610bc4565b60405180910390f35b610183600480360381019061017e9190610c0b565b61049b565b6040516101909190610bc4565b60405180910390f35b3480156101a557600080fd5b506101c060048036038101906101bb9190610aec565b610600565b6040516101cd9190610bc4565b60405180910390f35b3480156101e257600080fd5b506101eb6107e8565b6040516101f89190610d1c565b60405180910390f35b6000600115156002600084815260200190815260200160002060060160009054906101000a900460ff1615150361023b576000905061037a565b336002600084815260200190815260200160002060000160006101000a81548173ffffffffffffffffffffffffffffffffffffffff021916908373ffffffffffffffffffffffffffffffffffffffff1602179055508160026000848152602001908152602001600020600101819055506000600260008481526020019081526020016000206002018190555060006002600084815260200190815260200160002060030181905550600060026000848152602001908152602001600020600401819055506000600260008481526020019081526020016000206005018190555060016002600084815260200190815260200160002060060160006101000a81548160ff021916908315150217905550603260065410156103635761035e8261093b565b610375565b61036b61098c565b6103748261093b565b5b600190505b919050565b6000600115156002600084815260200190815260200160002060060160009054906101000a900460ff161515146103b557600080fd5b6002600083815260200190815260200160002060000160009054906101000a900473ffffffffffffffffffffffffffffffffffffffff169050919050565b6000600115156002600084815260200190815260200160002060060160009054906101000a900460ff1615151461042957600080fd5b60026000838152602001908152602001600020600501549050919050565b6000600115156002600084815260200190815260200160002060060160009054906101000a900460ff1615151461047d57600080fd5b60026000838152602001908152602001600020600401549050919050565b60008134146104a957600080fd5b60015434146104b757600080fd5b600115156002600086815260200190815260200160002060060160009054906101000a900460ff161515146104eb57600080fd5b600083101580156104fd5750600a8311155b61050657600080fd5b8260026000868152602001908152602001600020600201600082825461052c9190610d6d565b92505081905550600160026000868152602001908152602001600020600301600082825461055a9190610d6d565b92505081905550600260008581526020019081526020016000206003015460026000868152602001908152602001600020600201546105999190610dd0565b6002600086815260200190815260200160002060040181905550346002600086815260200190815260200160002060050160008282546105d99190610d6d565b92505081905550600260008581526020019081526020016000206004015490509392505050565b6000600115156002600084815260200190815260200160002060060160009054906101000a900460ff1615151461063657600080fd5b3373ffffffffffffffffffffffffffffffffffffffff166002600084815260200190815260200160002060000160009054906101000a900473ffffffffffffffffffffffffffffffffffffffff1673ffffffffffffffffffffffffffffffffffffffff16146106a457600080fd5b60006014600260008581526020019081526020016000206005015460116106cb9190610e01565b6106d59190610dd0565b905060003373ffffffffffffffffffffffffffffffffffffffff16826040516106fd90610e74565b60006040518083038185875af1925050503d806000811461073a576040519150601f19603f3d011682016040523d82523d6000602084013e61073f565b606091505b5050905080610783576040517f08c379a000000000000000000000000000000000000000000000000000000000815260040161077a90610ee6565b60405180910390fd5b600060026000868152602001908152602001600020600501819055506107de6040518060400160405280601481526020017f52657475726e696e6720746f206f776e65723a20000000000000000000000000815250836109ec565b8192505050919050565b6060600060065467ffffffffffffffff81111561080857610807610f06565b5b6040519080825280602002602001820160405280156108365781602001602082028036833780820191505090505b50905060005b60065481101561089a5760036000826004546108589190610d6d565b81526020019081526020016000205482828151811061087a57610879610f35565b5b6020026020010181815250506001816108939190610d6d565b905061083c565b508091505090565b610938816040516024016108b69190610fe3565b6040516020818303038152906040527f41304fac000000000000000000000000000000000000000000000000000000007bffffffffffffffffffffffffffffffffffffffffffffffffffffffff19166020820180517bffffffffffffffffffffffffffffffffffffffffffffffffffffffff8381831617835250505050610a88565b50565b60016005600082825461094e9190610d6d565b9250508190555080600360006005548152602001908152602001600020819055506001600660008282546109829190610d6d565b9250508190555050565b600454600554101561099d57600080fd5b600360006004548152602001908152602001600020600090556001600460008282546109c99190610d6d565b925050819055506001600660008282546109e39190611005565b92505081905550565b610a848282604051602401610a02929190611039565b6040516020818303038152906040527fb60e72cc000000000000000000000000000000000000000000000000000000007bffffffffffffffffffffffffffffffffffffffffffffffffffffffff19166020820180517bffffffffffffffffffffffffffffffffffffffffffffffffffffffff8381831617835250505050610a88565b5050565b60008151905060006a636f6e736f6c652e6c6f679050602083016000808483855afa5050505050565b600080fd5b6000819050919050565b610ac981610ab6565b8114610ad457600080fd5b50565b600081359050610ae681610ac0565b92915050565b600060208284031215610b0257610b01610ab1565b5b6000610b1084828501610ad7565b91505092915050565b60008115159050919050565b610b2e81610b19565b82525050565b6000602082019050610b496000830184610b25565b92915050565b600073ffffffffffffffffffffffffffffffffffffffff82169050919050565b6000610b7a82610b4f565b9050919050565b610b8a81610b6f565b82525050565b6000602082019050610ba56000830184610b81565b92915050565b6000819050919050565b610bbe81610bab565b82525050565b6000602082019050610bd96000830184610bb5565b92915050565b610be881610bab565b8114610bf357600080fd5b50565b600081359050610c0581610bdf565b92915050565b600080600060608486031215610c2457610c23610ab1565b5b6000610c3286828701610ad7565b9350506020610c4386828701610bf6565b9250506040610c5486828701610bf6565b9150509250925092565b600081519050919050565b600082825260208201905092915050565b6000819050602082019050919050565b610c9381610ab6565b82525050565b6000610ca58383610c8a565b60208301905092915050565b6000602082019050919050565b6000610cc982610c5e565b610cd38185610c69565b9350610cde83610c7a565b8060005b83811015610d0f578151610cf68882610c99565b9750610d0183610cb1565b925050600181019050610ce2565b5085935050505092915050565b60006020820190508181036000830152610d368184610cbe565b905092915050565b7f4e487b7100000000000000000000000000000000000000000000000000000000600052601160045260246000fd5b6000610d7882610bab565b9150610d8383610bab565b9250828201905080821115610d9b57610d9a610d3e565b5b92915050565b7f4e487b7100000000000000000000000000000000000000000000000000000000600052601260045260246000fd5b6000610ddb82610bab565b9150610de683610bab565b925082610df657610df5610da1565b5b828204905092915050565b6000610e0c82610bab565b9150610e1783610bab565b9250828202610e2581610bab565b91508282048414831517610e3c57610e3b610d3e565b5b5092915050565b600081905092915050565b50565b6000610e5e600083610e43565b9150610e6982610e4e565b600082019050919050565b6000610e7f82610e51565b9150819050919050565b600082825260208201905092915050565b7f4661696c656420746f2053656e64000000000000000000000000000000000000600082015250565b6000610ed0600e83610e89565b9150610edb82610e9a565b602082019050919050565b60006020820190508181036000830152610eff81610ec3565b9050919050565b7f4e487b7100000000000000000000000000000000000000000000000000000000600052604160045260246000fd5b7f4e487b7100000000000000000000000000000000000000000000000000000000600052603260045260246000fd5b600081519050919050565b60005b83811015610f8d578082015181840152602081019050610f72565b60008484015250505050565b6000601f19601f8301169050919050565b6000610fb582610f64565b610fbf8185610e89565b9350610fcf818560208601610f6f565b610fd881610f99565b840191505092915050565b60006020820190508181036000830152610ffd8184610faa565b905092915050565b600061101082610bab565b915061101b83610bab565b925082820390508181111561103357611032610d3e565b5b92915050565b600060408201905081810360008301526110538185610faa565b90506110626020830184610bb5565b939250505056fea2646970667358221220fdc827d506b925a8b093cb5082517c20a0286df3bec003592df1750fb316dada64736f6c63430008110033",
  "linkReferences": {},
  "deployedLinkReferences": {}
}